:100000000C9462000C948A000C948A000C948A0070
:100010000C948A000C948A000C948A000C948A0038
:100020000C948A000C948A000C948A000C94B902F7
:100030000C948A000C948A000C948A000C948A0018
:100040000C946F020C948A000C948A000C948A0021
:100050000C948A000C948A000C948A000C948A00F8
:100060000C948A000C948A000000000024002700F1
:100070002A0000000000250028002B0000000000DE
:1000800023002600290004040404040404040202DA
:100090000202020203030303030301020408102007
:1000A0004080010204081020010204081020000012
:1000B0000008000201000003040700000000000027
:1000C00000004C0411241FBECFEFD8E0DEBFCDBF2F
:1000D00011E0A0E0B1E0E0EFF9E002C005900D9280
:1000E000A430B107D9F721E0A4E0B1E001C01D922E
:1000F000A933B207E1F710E0C2E6D0E004C02197CF
:10010000FE010E94F004C136D107C9F70E947503B1
:100110000C94F6040C940000833081F028F48130B4
:1001200099F08230A9F008958730A9F08830C9F09D
:100130008430B1F4809180008F7D03C08091800075
:100140008F7780938000089584B58F7784BD08955C
:1001500084B58F7DFBCF8091B0008F778093B00006
:1001600008958091B0008F7DF9CFCF93DF93282F32
:1001700030E0F901E255FF4F8491F901E656FF4F57
:10018000D491F901EA57FF4FC491CC23A1F081111A
:100190000E948C00EC2FF0E0EE0FFF1FE458FF4FA1
:1001A000A591B491EC91ED2381E090E009F480E019
:1001B000DF91CF91089580E090E0FACF1F93CF9325
:1001C000DF93282F30E0F901E255FF4F8491F901C8
:1001D000E656FF4FD491F901EA57FF4FC491CC2363
:1001E000A9F0162F81110E948C00EC2FF0E0EE0F89
:1001F000FF1FEE58FF4FA591B4918FB7F894EC9183
:10020000111108C0D095DE23DC938FBFDF91CF9111
:100210001F910895DE2BF8CFCF93DF9390E0FC0180
:10022000E656FF4F24918A579F4FFC018491882303
:10023000D1F090E0880F991FFC01E859FF4FA5917C
:10024000B491FC01EE58FF4FC591D491623071F426
:100250009FB7F8943C91822F809583238C93E881FB
:100260002E2B28839FBFDF91CF9108958FB7F894ED
:10027000EC912E2B2C938FBFF6CF3FB7F894809143
:10028000350190913601A0913701B091380126B522
:10029000A89B05C02F3F19F00196A11DB11D3FBFBE
:1002A000BA2FA92F982F8827BC01CD01620F711D8D
:1002B000811D911D42E0660F771F881F991F4A9587
:1002C000D1F708958F929F92AF92BF92CF92DF9213
:1002D000EF92FF920E943D014B015C018FE0C82E1E
:1002E000D12CE12CF12C0E943D01681979098A0971
:1002F0009B09683E734081059105A8F321E0C21A6D
:10030000D108E108F10888EE880E83E0981EA11C50
:10031000B11CC114D104E104F10429F7FF90EF905E
:10032000DF90CF90BF90AF909F908F900895CF9225
:10033000DF92EF92FF92CF93DF93EC01603282E085
:100340007807CCF5653B710514F064EB70E08981AA
:1003500028E830E0281B310987FD3395220F331F31
:10036000220F331F6901330FEE08FF088A8128E549
:1003700032E0281B310987FD3395220F331F220FEE
:10038000331F032E000C440B550B2C193D094E094D
:100390005F09DB0177FF02C0B0E0A0E00E94AB0480
:1003A00024EB30E040E050E00E948104C20ED31EF6
:1003B000E41EF51EB601E881EC3070F5298188E86D
:1003C00090E0821B910927FD9395880F991F880F54
:1003D000991F681779077CF02A8188E592E0821BD3
:1003E000910927FD9395880F991F880F991F68170A
:1003F00079070CF4CB010297880F991F4FB7F89437
:100400002E2F30E0F901EE0FFF1FE20FF31FEA5F1E
:10041000FE4F928381834FBFDF91CF91FF90EF908A
:10042000DF90CF9008951F93CF93DF93EC01162FA9
:1004300088818C3008F04EC061E0812F0E940C0151
:100440008881282F30E0F901EE0FFF1FE20FF31F24
:10045000EA5FFE4F1F736081607C612B60831982AD
:100460001A822CE0622F0E94E404829FB0011124C2
:1004700030E020E0AB01420F531FFA01EE0FFF1FE7
:10048000E40FF51FEA5FFE4F908196FD16C02F5FC7
:100490003F4F2C30310571F781110FC01092800051
:1004A00082E0809381001092850010928400B19ABE
:1004B00080916F00826080936F00E8818E2F90E0C2
:1004C000FC01EE0FFF1FE80FF91FEA5FFE4F80816E
:1004D000806480838881DF91CF911F9108951F925E
:1004E0000F920FB60F9211242F933F938F939F93E8
:1004F000AF93BF938091310190913201A09133016C
:10050000B09134013091300123E0230F2D3758F59D
:100510000196A11DB11D209330018093310190936C
:100520003201A0933301B093340180913501909151
:100530003601A0913701B09138010196A11DB11D7E
:100540008093350190933601A0933701B093380121
:10055000BF91AF919F918F913F912F910F900FBEBF
:100560000F901F90189526E8230F0296A11DB11D2C
:10057000D2CF1F920F920FB60F9211242F933F9359
:100580004F935F936F937F938F939F93AF93BF939B
:10059000CF93DF93EF93FF9380910501C091040106
:1005A000D0E087FF24C010928500109284008091D3
:1005B00005018F5F8093050180910501082E000CD5
:1005C000990B8C179D0724F4809105018C30C4F1A0
:1005D0008091840090918500049680349C4908F4B1
:1005E0007AC08091840090918500049676C08091B5
:1005F0000501082E000C990B8C179D07C4F6E0919D
:1006000005018E2FEE0F990BFC01EE0FFF1FE80F77
:10061000F91FEA5FFE4F808186FFC9CFE091050197
:100620008E2FEE0F990BFC01EE0FFF1FE80FF91F45
:10063000EA5FFE4F808160E08F730E94DE00B7CFDB
:100640002091840030918500E09105018E2FEE0FFE
:10065000990BFC01EE0FFF1FE80FF91FEA5FFE4F39
:1006600081819281820F931F9093890080938800EB
:10067000E09105018E2FEE0F990BFC01EE0FFF1F8D
:10068000E80FF91FEA5FFE4F808186FF11C0E091FD
:1006900005018E2FEE0F990BFC01EE0FFF1FE80FE7
:1006A000F91FEA5FFE4F808161E08F730E94DE00D8
:1006B000FF91EF91DF91CF91BF91AF919F918F917A
:1006C0007F916F915F914F913F912F910F900FBE4E
:1006D0000F901F90189580E49CE990938900809377
:1006E00088008FEF80930501E3CF789484B5826012
:1006F00084BD84B5816084BD85B5826085BD85B5C6
:10070000816085BD80916E00816080936E00109243
:1007100081008091810082608093810080918100BE
:10072000816080938100809180008160809380004F
:100730008091B10084608093B1008091B0008160AD
:100740008093B00080917A00846080937A008091D9
:100750007A00826080937A0080917A008160809331
:100760007A0080917A00806880937A001092C100AC
:1007700068E070E08DE291E00E94130267E070E0B3
:100780008AE291E00E94130262E085E00E940C017F
:1007900062E084E00E940C0162E083E00E940C01B0
:1007A00062E082E00E940C016091020170910301FD
:1007B0008DE291E00E94970160910001709101012A
:1007C0008AE291E00E949701C0E0D0E085E00E94BB
:1007D000B500892B99F46091020170910301643B8B
:1007E000710564F46F5F7F4F7093030160930201A2
:1007F0008DE291E00E9497010E94620184E00E94D4
:10080000B500892B99F460910201709103011616CD
:10081000170664F46150710970930301609302013B
:100820008DE291E00E9497010E94620183E00E94A4
:10083000B500892B99F46091000170910101673432
:10084000710564F0615071097093010160930001BA
:100850008AE291E00E9497010E94620182E00E9478
:10086000B500892B99F46091000170910101603A03
:10087000710564F46F5F7F4F709301016093000115
:100880008AE291E00E9497010E946201209709F498
:100890009DCF0E9400009ACF809104018C3048F5D2
:1008A00091E0980F9093040180932D0190E0FC015A
:1008B000EE0FFF1FE80FF91FEA5FFE4F88EB9BE08A
:1008C00092838183809104018C30B8F491E0980F79
:1008D0009093040180932A0190E0FC01EE0FFF1F2A
:1008E000E80FF91FEA5FFE4F88EB9BE0928381835C
:1008F00008958FEF80932D01E5CF8FEF80932A012C
:100900000895052E97FB1EF400940E94980457FD4D
:1009100007D00E94B30407FC03D04EF40C94980453
:1009200050954095309521953F4F4F4F5F4F08951B
:1009300090958095709561957F4F8F4F9F4F08954B
:100940000E94D504A59F900DB49F900DA49F800D8B
:10095000911D11240895B7FF0C94A0040E94A004D7
:10096000821B930B0895A1E21A2EAA1BBB1BFD014B
:100970000DC0AA1FBB1FEE1FFF1FA217B307E4077E
:10098000F50720F0A21BB30BE40BF50B661F771FD6
:10099000881F991F1A9469F76095709580959095B6
:1009A0009B01AC01BD01CF010895A29FB001B39F8F
:1009B000C001A39F700D811D1124911DB29F700D68
:1009C000811D1124911D0895991B79E004C0991F80
:1009D000961708F0961B881F7A95C9F78095089599
:1009E000EE0FFF1F0590F491E02D0994F894FFCFCE
:0409F0005A005A004F
:00000001FF
